:100000000C9430000C9442000C940C090C944200A7
:100010000C9442000C9442000C9442000C94420058
:100020000C9442000C9442000C9442000C94300951
:100030000C9455090C9442000C9442000C9442001C
:100040000C9442000C9442000C9442000C94420028
:1000500087079707AF07C7070408DF072508480881
:1000600011241FBECFEFD2E0DEBFCDBF21E0A0E064
:10007000B1E001C01D92AD34B207E1F70E941E0746
:100080000C94B0090C940000E8ECF0E085E080836B
:100090001092CA00808188608083239A2B9A0895E9
:1000A000E8ECF0E086E0808381E08093CA00808104
:1000B00088608083239A2B980895CF93DF936134CF
:1000C000B1F0653409F049C080E090E0C2EDD0E0C5
:1000D000E9ECF0E0DC01A45CBE4F2C912883208188
:1000E00021FFFDCF01968E309105A1F736C086E243
:1000F00080932D0181E380932E0187E380932F016C
:1001000080E38093300196E3909331018093320134
:10011000809333018093340192E39093350191E40D
:100120009093360180933701809338018093390191
:1001300084E280933A0180E090E0C2EDD0E0E9EC07
:10014000F0E0DC01A35DBE4F2C912883208121FFCC
:10015000FDCF01968E309105A1F7DF91CF910895E3
:100160008091D200863221F410924C0110924B0102
:10017000E0914B01F0914C018091D200E45CFE4F84
:10018000808380914B0190914C01019690934C019A
:1001900080934B0180914B0190914C01019759F450
:1001A00081E090E0FC01E45CFE4F108201968E300D
:1001B0009105C1F70AC080914B0190914C010E97B7
:1001C00021F410924C0110924B0180913C01863237
:1001D000B1F580913D01803391F580913E018033EE
:1001E00071F580913F01803351F58091400180335A
:1001F00031F580914101803311F5809143018033C5
:10020000F1F4809144018033D1F48091450181342F
:10021000B1F480914601803391F48091470180339D
:1002200071F480914801803351F480914901843206
:1002300031F481E090E090932C0180932B0108959C
:1002400080913C01863209F03FC08091490184329F
:10025000D9F53BC080913E01873309F040C08091C1
:100260003F018033E1F5809140018633C1F58091F3
:1002700041018033A1F580914201803381F5809165
:100280004301803361F580914401823341F522C0FE
:1002900080913E018033C1F480913F018033A1F40D
:1002A00080914001803381F480914101803361F479
:1002B00080914201803341F480914301803321F4E5
:1002C00080914401803381F0089580913D01813314
:1002D00031F4C0CF80914501823551F0F5CF809146
:1002E0003D01803389F7D4CF80914501813461F796
:1002F000089580E090E0FC01E45CFE4F10820196DE
:100300008E309105C1F7089581E18093830080EDDF
:1003100092E0909387008093860082E08093800033
:100320008BE18093810008951A9B03C01A9904C041
:10033000089580E090E0089581E090E00895809134
:100340000E01811194C080910F01811190C094C061
:10035000209127013091280180912501909126015B
:100360002817390738F482E090E090932A018093AF
:10037000290178C081E090E090932A0180932901BF
:1003800071C06130710509F06DC020912701309175
:10039000280180912301909124018217930738F45A
:1003A00083E090E090932A01809329015BC0209123
:1003B0002701309128018091230190912401821717
:1003C000930708F465C080911001811161C059C084
:1003D00080911001811169C045C080910F01811188
:1003E0006BC06FC080910F01811179C071C02091E5
:1003F00027013091280180912101909122018217DB
:10040000930708F478C080911B0190911C01049718
:1004100008F46AC070C080911B0190911C0105977F
:1004200008F476C07CC061307105E1F420912701A9
:100430003091280180912301909124018217930724
:1004400008F47BC080911B0190911C01059708F472
:100450006DC073C080911B0190911C01059708F439
:1004600079C07FC08091290190912A0108958091DF
:100470000E018111B2CF20C06115710509F468CF5A
:1004800080CF84E090E090932A0180932901EACF05
:10049000209127013091280180912301909124011E
:1004A0008217930708F094CFDDCF81E090E090931E
:1004B0002A0180932901D6CF80910E01811108C0B5
:1004C00091CF86E090E090932A0180932901CACFD2
:1004D00088E090E090932A0180932901C3CF6115B1
:1004E000710509F484CF9FCF85E090E090932A01B5
:1004F00080932901B7CF2091270130912801809165
:100500002101909122018217930708F484CF07C03C
:1005100081E090E090932A0180932901A3CF88E0A5
:1005200090E090932A01809329019CCF87E090E08E
:1005300090932A018093290195CF20912701309132
:10054000280180912301909124018217930708F4D8
:1005500081CF07C081E090E090932A018093290128
:1005600081CF88E090E090932A01809329017ACF8F
:100570002098219A81E090E09093180180931701D0
:100580008091270190912801892B31F08FEF9FEF07
:1005900090931A018093190180911F01909120017D
:1005A0008617970729F410921201109211010BC0BF
:1005B00080911D0190911E016817790721F4109216
:1005C00012011092110170938B0060938A0082E3F4
:1005D0008093800008952198209A81E090E0909384
:1005E00018018093170120912701309128018091F3
:1005F0002501909126012817390730F481E090E019
:1006000090931A018093190180911F01909120010C
:100610008617970729F410921201109211010BC04E
:1006200080911D0190911E016817790721F41092A5
:10063000120110921101709389006093880082EC7E
:1006400080938000089520982198109218011092AC
:10065000170110921A0110921901109216011092AE
:100660001501109289001092880010928B00109250
:100670008A0082E08093800008950F931F93CF93A8
:10068000DF938C01C5E0D0E060ED72E0C8010E940C
:10069000EB022FEF8FEC92E0215080409040E1F789
:1006A00000C00000C8010E9423032FEF87E394E0FD
:1006B000215080409040E1F700C000002197209732
:1006C00019F7DF91CF911F910F91089526981E99E8
:1006D00003C081E080930E01809117019091180171
:1006E0002091150130911601820F931F90931601EE
:1006F000809315012091150130911601809113010D
:100700009091140182179307F8F48091270190913A
:100710002801459760F41A9906C009C01092160185
:1007200010921501089581E080931001F7CF81E0C8
:1007300080930F0180911B0190911C010196909371
:100740001C0180931B01EACF0895CF93DF93EC0146
:1007500080910C0190910D01BE010E948D09809144
:100760000C0190910D01BE0104960E948D098091AB
:100770000C0190910D01BE0108960E948D09DF9138
:10078000CF9108958091270190912801892B11F430
:100790001A9924C020911501309116018091110100
:1007A0009091120182179307F0F4809127019091A4
:1007B00028012091190130911A01820F931F909303
:1007C00028018093270180912701909128010E94A0
:1007D000A5031092160110921501089510921A01A6
:1007E00010921901D7CF0895CF93DF9380910C0118
:1007F00090910D010E948709EC0180910C0190916C
:100800000D0104960E948709C817D90759F48091F1
:100810000C0190910D010E9487099093280180930B
:10082000270139C080910C0190910D010E94870928
:10083000EC0180910C0190910D0108960E948709AE
:10084000C817D90759F480910C0190910D010E94AD
:10085000870990932801809327011DC080910C0186
:1008600090910D0104960E948709EC0180910C0182
:1008700090910D0108960E948709C817D90759F46D
:1008800080910C0190910D0104960E94870990932C
:100890002801809327018091270190912801DF9101
:1008A000CF910895CF93DF9380910A0190910B012E
:1008B0000E948709EC0180910A0190910B01049636
:1008C0000E948709C817D90759F480910A019091AD
:1008D0000B010E948709909326018093250139C05E
:1008E00080910A0190910B010E948709EC0180918F
:1008F0000A0190910B0108960E948709C817D90731
:1009000059F480910A0190910B010E9487099093FC
:100910002601809325011DC080910A0190910B0151
:1009200004960E948709EC0180910A0190910B01C5
:1009300008960E948709C817D90759F480910A01BF
:1009400090910B0104960E94870990932601809351
:1009500025018091250190912601DF91CF91089585
:10096000CF93DF9380910401909105010E94870944
:10097000EC01809104019091050104960E94870981
:10098000C817D90759F480910401909105010E947C
:1009900087099093200180931F0139C08091040141
:1009A000909105010E948709EC01809104019091CA
:1009B000050108960E948709C817D90759F4809144
:1009C0000401909105010E94870990932001809372
:1009D0001F011DC0809104019091050104960E94A1
:1009E0008709EC01809104019091050108960E940D
:1009F0008709C817D90759F480910401909105011E
:100A000004960E9487099093200180931F01809192
:100A10001F0190912001DF91CF910895CF93DF9333
:100A200080910201909103010E948709EC0180915D
:100A300002019091030104960E948709C817D90703
:100A400059F480910201909103010E9487099093CB
:100A50001E0180931D0139C0809102019091030114
:100A60000E948709EC018091020190910301089690
:100A70000E948709C817D90759F480910201909103
:100A800003010E94870990931E0180931D011DC0E0
:100A9000809102019091030104960E948709EC0164
:100AA000809102019091030108960E948709C8175E
:100AB000D90759F4809102019091030104960E9494
:100AC000870990931E0180931D0180911D019091D3
:100AD0001E01DF91CF910895CF93DF93809106019E
:100AE000909107010E948709EC0180910601909185
:100AF000070104960E948709C817D90759F4809105
:100B00000601909107010E9487099093220180932A
:100B1000210139C080910601909107010E94870947
:100B2000EC01809106019091070108960E948709C7
:100B3000C817D90759F480910601909107010E94C6
:100B4000870990932201809321011DC080910601A5
:100B50009091070104960E948709EC01809106019B
:100B60009091070108960E948709C817D90759F480
:100B7000809106019091070104960E948709909345
:100B80002201809321018091210190912201DF9126
:100B9000CF910895CF93DF9380910801909109013F
:100BA0000E948709EC018091080190910901049647
:100BB0000E948709C817D90759F4809108019091BC
:100BC00009010E948709909324018093230139C071
:100BD00080910801909109010E948709EC018091A0
:100BE00008019091090108960E948709C817D90742
:100BF00059F480910801909109010E94870990930E
:100C00002401809323011DC0809108019091090166
:100C100004960E948709EC018091080190910901D6
:100C200008960E948709C817D90759F480910801CE
:100C30009091090104960E94870990932401809362
:100C400023018091230190912401DF91CF91089598
:100C5000CF93DF93EC0110922A0110922901109298
:100C60001A01109219011092180110921701109296
:100C700016011092150110921201109211018EE6C8
:100C800090E0909314018093130110920E01109242
:100C90000F011092100110921C0110921B0184E1AF
:100CA00090E090930D0180930C018AE190E0909385
:100CB0000B0180930A0180E290E0909305018093FC
:100CC000040186E290E090930301809302018CE29C
:100CD00090E0909309018093080182E390E0909363
:100CE00007018093060188E390E0909301018093CF
:100CF000000184EF91E00E947F0981112BC0CE0199
:100D00000E94F4039093280180932701CE010E9452
:100D100052049093260180932501CE010E94B004D5
:100D20009093200180931F01CE010E940E059093A5
:100D30001E0180931D01CE010E946C05909322013B
:100D400080932101CE010E94CA05909324018093D3
:100D500023012FC08F3F69F5CE010E94F4038D3D22
:100D6000954020F080E090E00E94A503CE010E9413
:100D7000F40390932801809327018BE990E09093EE
:100D800026018093250188E592E0909320018093CD
:100D90001F018AEA90E090931E0180931D0182E377
:100DA00090E09093220180932101909324018093FD
:100DB0002301DF91CF910895FC0184E190E09183BC
:100DC00080838AE190E09383828380E290E0958340
:100DD000848386E290E0978386838CE290E091871B
:100DE000808782E390E09387828788E390E095870D
:100DF000848708950F931F93CF93DF938C01EB01AA
:100E0000FC01808191810E948D09F801808191818E
:100E1000BE0104960E948D09F80180819181BE0176
:100E200008960E948D09DF91CF911F910F9108952F
:100E30002098219822980E9826980895CF92DF92B4
:100E4000EF92FF920F931F93CF93DF93CDB7DEB74F
:100E500060970FB6F894DEBF0FBECDBF2FEF87E6C9
:100E600091E0215080409040E1F700C000000E94D6
:100E7000180788E88093CC008FEE90E09093CE0026
:100E80008093CD00CE0140960E945000CE010F9677
:100E90000E94280685E086BD81E080936E00CE0129
:100EA0000F960E94840188E08093690082E08DBBE8
:100EB000CE010F960E9494018C017894C12CD12C04
:100EC0000F2EF3E0EF2EF12CF02D17C1CE010F966F
:100ED0000E9494010817190709F0FEC0B801CE015D
:100EE0000F960E949F01C816D90609F406C1B801E1
:100EF000CE010F960E949F016C01FC013197E830F2
:100F0000F10508F0D7C0E85DFF4F0C947909CE01D8
:100F10000F960E9423032FEF8FE09EE02150804028
:100F20009040E1F700C0000010920F01E6C0CE0132
:100F30000F960E9423032FEF8FE09EE02150804008
:100F40009040E1F700C0000060911F017091200106
:100F5000CE010F960E94EB0210920F01CEC0CE017F
:100F60000F960E9423032FEF8FE09EE021508040D8
:100F70009040E1F700C0000060911F0170912001D6
:100F8000CE010F960E94B80210920F01B6C0CE019A
:100F90000F960E9423032FEF8FE09EE021508040A8
:100FA0009040E1F700C0000060911D0170911E01AA
:100FB000CE010F960E94B80210920F019EC0CE0182
:100FC0000F960E9423032FEF8FE19CE12150804078
:100FD0009040E1F700C0000060ED72E0CE010F9696
:100FE0000E94B8022FEF8FE29AE221508040904099
:100FF000E1F700C00000CE010F960E942303F0929B
:101000002C01E0922B0179C0CE010F960E942303A0
:101010002FEF8FE19CE1215080409040E1F700C02C
:101020000000CE010F960E943D03CE010F960E9454
:1010300023032FEF8FE09EE0215080409040E1F7A6
:1010400000C0000010920F0158C0CE010F960E9400
:1010500023032FEF8FE19CE1215080409040E1F786
:1010600000C0000060ED72E0CE010F960E94EB021E
:101070002FEF8FE29AE2215080409040E1F700C0CC
:101080000000CE010F960E94230310920F0135C07D
:10109000CE010F960E9423032FEF8FE09EE0215098
:1010A00080409040E1F700C00000F0922C01E092F7
:1010B0002B0123C0CE010F960E9423032FEF8FE058
:1010C0009EE0215080409040E1F700C00000F09287
:1010D0002C01E0922B0111C0CE010F960E94230338
:1010E0002FEF8FE09EE0215080409040E1F700C05C
:1010F0000000F0922C01E0922B0120912B01309105
:101100002C01222309F4E2CECE010F960E94230384
:1011100080912B0190912C018330D1F3CE01019667
:101120000E94DC0610E001E0F12C10C0CE014096D8
:101130000E942001813489F5111158C00EC011237D
:1011400099F1CE0140960E9479011F2D80912B01CB
:1011500090912C01813051F34EC0CE010F960E9428
:101160002303CE0140960E94440061E4CE014096E4
:101170000E945D002FEF87E394E021508040904073
:10118000E1F700C00000CE010F960E942303CE01BC
:1011900040960E945000102FD9CFCE0140960E9459
:1011A00020018235F9F4CBCF60E070E0CE010196EA
:1011B0000E94FA06CE0140960E94440065E4CE01EA
:1011C00040960E945D002FEF87E394E0215080401D
:1011D0009040E1F700C00000CE0140960E94500010
:1011E000102FB4CF112309F4B1CFABCFCE0140966D
:1011F0000E942001F7CF80E090E060960FB6F8944F
:10120000DEBF0FBECDBFDF91CF911F910F91FF9039
:10121000EF90DF90CF9008951F920F920FB60F922C
:1012200011242F933F934F935F936F937F938F93EB
:101230009F93AF93BF93EF93FF930E94C203FF91DD
:10124000EF91BF91AF919F918F917F916F915F913E
:101250004F913F912F910F900FBE0F901F901895B7
:1012600078941F920F920FB60F9211242F933F93F1
:101270004F935F936F937F938F939F93AF93BF939E
:10128000EF93FF930E946603FF91EF91BF91AF919F
:101290009F918F917F916F915F914F913F912F918E
:1012A0000F900FBE0F901F9018951F920F920FB6C0
:1012B0000F9211242F933F934F935F936F937F93DC
:1012C0008F939F93AF93BF93EF93FF930E94B000D0
:1012D000FF91EF91BF91AF919F918F917F916F910E
:1012E0005F914F913F912F910F900FBE0F901F90E4
:1012F0001895EE0FFF1F0590F491E02D0994F999D0
:10130000FECF92BD81BDF89A992780B50895A8E1D6
:10131000B0E042E050E00C9494090E94A209272F0B
:101320000C94A309DC01CB01FC01F999FECF06C0A6
:10133000F2BDE1BDF89A319600B40D924150504093
:10134000B8F70895262FF999FECF1FBA92BD81BD37
:1013500020BD0FB6F894FA9AF99A0FBE0196089537
:04136000F894FFCF2F
:00000001FF
